:020000041010DA
:10000000737004309701F00F9381C1451711F00F01
:10001000130141FF17150000130545F7938501BA39
:10002000138681C063FAC5008322050023A0550012
:1000300011059105E3EAC5FE138581C0938581D042
:100040006377B500232005001105E36DB5FEEF00D1
:0E00500030430145814529206F00505101A029
:10006000411106C622C426C2EF007020EF0090297D
:10007000EF00B02D971700009387878923AAF1CA54
:1000800097170000938767A523A4F1CE9717000068
:100090009387479523A6F1CE971700009387478F44
:1000A00023A8F1CE971700009387C79923A0F1CE1C
:1000B000971700009387479523AEF1CC9717000060
:1000C0009387479323A2F1CEB717101023ACF1CA40
:1000D0009D6723AEF1CA9307002023A0F1CCB70798
:1000E000002023A2F1CC856723A4F1CCB7573412AA
:1000F0009387876723A6F1CCB74765879387173225
:1001000023A8F1CCB707141083A70708371705F009
:100110006D17BA9793B71700138541C123AAF1CC85
:1001200023AC01CCE526138401C01C40984B098BFD
:1001300001CF094798CBDC43054693053100138571
:1001400041C1A301F100592E03C701C185476318BE
:10015000F70037151010EF009003238801C0938437
:1001600041C126853D2083A7C40ED5FF1840B71690
:100170000140930707C06304D700B717014023A0CD
:10018000F1C055B7854723A4F1C082800325C50E71
:100190008280938781C09C43638107341301C1FA35
:1001A000A2C686C8A6C485472326F50E8347350018
:1001B0001307500A2A84638DE72A1307600A638EA7
:1001C000E7041307400A6396E70693058500114686
:1001D0002800EF00B03C0346B1007C109305C4003A
:1001E0000A063E85EF00903B2AC64800412E832731
:1001F000040A894548008297834781002D47FD17EF
:1002000093F7F70F6367F70217170000130747D13B
:100210008A07BA979C43BA978287814785456810B9
:10022000014781460946A5268327040AA945681087
:100230008297C640364423A401C0A6441301410559
:100240008280B25702C82D47638EE70A6368F704BD
:1002500011476383E70A6368F70209476389E70880
:100260006369F7080547638EE70681459304A40494
:10027000100826856D210324040A2685C921AA8534
:10028000268502947DB719476383E70663E9E7068D
:100290001D47E39CE7FCC167FD1781A84147638CBC
:1002A000E7066360F70239476381E7066362F70692
:1002B0003147E39CE7FA02CA02CC02CE02D0954550
:1002C00075B74947638FE70463EAE7041307000E35
:1002D000638CE7041307100EE399E7F88327040CF7
:1002E00029A0B707014B938707503ECA0DA8854741
:1002F000EDBF8327440AD5BF8327840AFDB7832730
:10030000C40AE5B793070004CDB78327040BF1BFF8
:100310008327440BD9BF8327840BC1BF02CA8945F9
:10032000B1B78327C40BD1B70327040E8326840EED
:100330008147E37CD7FA034607000507B29793F796
:10034000F70FC5BF8327040C89CF8327440C91EB9B
:100350008327C40C9D65371510108297854723228B
:10036000F40C3255C2558327C40C2320A40E23223B
:10037000B40E82979304A40409468145268541263C
:10038000DDBD9304A4040546CDBF8327040C89CFAB
:100390008327440C91EB8327C40C9D6537151010FF
:1003A000829785472322F40CB25742579304A40442
:1003B0002320F40E2322E40E2324F40E114675BFED
:1003C0009304A4042D4681452685152E8327040A0F
:1003D00026853EC0AD268247AA852685829783273B
:1003E000440D8297B9B59304A4042546814526851A
:1003F00039268327040A26853EC091268247AA858E
:10040000268582978327840D5256C255325582978E
:100410000DB532579307100E6310F704C25402C88B
:100420008327040C95CC9DE7B7F7FA0F95073EC8D4
:100430000327C40CB7071410930500081385070899
:1004400002970327840CB707141011460C08138574
:10045000070802972320940C9304A404314631BF6B
:10046000F5DB8327C40C9D65371510108297C9B73B
:10047000834455008347450093058500A204BE943C
:100480008327850C0325850E268682978327840E75
:100490006810BE942324940ED5208327040A89452E
:1004A000681082970327440E8327040EBA97032708
:1004B000840EE360F7D89304A40411468145268591
:1004C0003D2C8327040A26853EC0952C8247AA85A9
:1004D000268582978327C40D29B78280411122C4C3
:1004E00026C206C6AA872E84B384C500631794006B
:1004F000B240224492444101828083450400138526
:1005000007093EC0BD2405048247CDB7511122C260
:1005100006C4930725002328F50897070000938752
:10052000A7C62A84232CF508130505090D24A2402B
:100530002326040E124423A401C0310182800357F4
:10054000050081466395C6002310E5008280B387CD
:10055000D50083C707002143A207B98F93920701F3
:100560001397170063D602008567938717023D8FA4
:100570007D13BA87E31403FE8506E9B79307A00548
:100580002300F500930710FAA300F50082804111C3
:1005900022C42A841305A0052300A4002301D4004B
:1005A000130570FA93060005A300A400A301C4007C
:1005B0002302B400A303F400A302D4002303E40045
:1005C000A28513052100214606C623110100853F9F
:1005D00083572100B2402304F400A183A304F40054
:1005E000224441018280511106C49307A005A30053
:1005F000B5002300F50023010500A3010500230237
:100600000500A30205001306000481451905EF004B
:100610007006A240014531018280834735000347BF
:100620002500A207BA9713070004634DF702511182
:1006300022C22A8419053E9526C006C4B284EF0062
:10064000E075834724000145A6972301F400834702
:100650003400A180BE94A3019400A24012448244BD
:100660003101828005458280411122C4AA852A84F5
:1006700009461305210006C623110100C93593055B
:1006800024001305210009465D3D834734000346DD
:10069000240013052100A2073E969305640045350A
:1006A00083572100B24001452302F400A183A30235
:1006B000F400224441018280411126C2AE84930598
:1006C000400A06C622C42AC03284313F0245114680
:1006D000A685A137C0C0014403C734006348E400C5
:1006E00022440245B24092444101BDBFCC40024584
:1006F000131724001146BA950D370504F1BF1111E7
:10070000B70700022EC032C29387070A0A862C0060
:1007100006CC3EC45537E24001457101828031115B
:10072000A301B1009307700A8A8506C82310F1005F
:10073000230101005137C2400145510182808347A6
:10074000350003452500A2073E9519058280232226
:10075000050023060500084119C95111130660045C
:10076000814506C4012FA240014531018280054523
:100770008280211126C606CA22C88347C5002315D8
:100780000100194704416360F718170700001307B9
:10079000277C8A07BA979C432A84BA9782871307D3
:1007A000A00585476396E5002306F5002380B40085
:1007B0003E8585A0A380B4009385F50593F5F50FDC
:1007C000994763EEB700170700001307277A8A05D9
:1007D000BA959C41BA97828789472306F4008547DA
:1007E000C1BF1C4599C32685829723060400814713
:1007F000C1B723810400A381040023220400994788
:10080000E9BF1C4523060500014581C7268582975F
:100810000145D2404244B244610182802381B40048
:100820008D4765BF83C72400A381B400A205BE9590
:100830009307000463C4B700914745B7230605003A
:1008400079BF2382B400954749BFA382B40075B72E
:100850005C41938664001387170058C1B6972380C4
:10086000B70003C7140085471307C7051377F70FB1
:1008700063E3E70603C7340003C624002207329768
:100880005041636AE6040946A6851305A1003EC0EF
:1008900036C22315010065310946938524001305EE
:1008A000A1007139924650401305A100B685413927
:1008B00003C7540003C644008356A10022073297A1
:1008C00082476398E6001844814701C7268502974E
:1008D00081472306040083C614001307700AE399B6
:1008E000E6EC54401D47E375D7EC21472381E40033
:1008F000A3810400184409C726853EC00297824799
:100900002306040075B523060500D1BD938701C0F9
:100910009843B727014093870740D04FB71601404F
:10092000631CD702B7060010938606206318D60012
:10093000B7060050D4CF23A0070211A8D04F8D6670
:100940006317D60023AE07009306000F94D3AA9531
:100950006314B50201458280B70600109386062015
:100960006316D6008566938606A0E9B7D04F8D66DC
:10097000E31FD6FCBD667DBF05058347F5FF5CC35D
:100980001C4B858BF5DF85471CCBD9B78280F3776D
:1009900004301567B72701409306075023AED740B0
:1009A00023A007428946B707014023A4D70AB70608
:1009B00001E083A70620130717802A83BD9B23A08D
:1009C000F6209966B71700409386A6A5D4C3A966FA
:1009D0009386565AD4C39306E003D4C798C70283BC
:1009E000B7F7EFEFAA971D676363F7004DB78280F3
:1009F000AE875111AA853E8506C44D26A240014509
:100A000031018280311122C626C406C82A87AE84ED
:100A1000B387C5002E846318F400C2403244A24458
:100A2000014551018280834504003305974022959A
:100A300001463EC23AC0C92C050492470247E1BFB5
:100A4000411122C426C206C6AA842A84B387B400F0
:100A50006368F400B240224492440145410182801F
:100A600022852EC0CD24130404208245C5B7996782
:100A700037170040938797CF1CC7930770701CCF20
:100A8000B707014023A00700316723A2070013071F
:100A9000F734D8CB23AC0700370701E0854614CBE9
:100AA0008326072093E606012320D720894623A426
:100AB000D70A1307302223A0E70A8280B707014034
:100AC0009847B70701409C47B307F74063E3A70087
:100AD00082800100FDB7371503005111130505D4BD
:100AE00006C4E93F1967B71700401307A7A5D8C385
:100AF00029671307575AA240D8C313070020D8C745
:100B000031018280B72701403707001023AA074030
:100B10001307072023AEE74023A0074223A2074084
:100B200023A4074023A6074023A8074023AC07407F
:100B300093060014B717014094C313075011D8CB84
:100B400023A0D7C023AAE7C08280B707004093063E
:100B5000300C94CF1307C00398CF3796C3F990C3D6
:100B600094CF98CF3946D0C394CF98CF90C794CF25
:100B700098CF3146D0C794CF37F60C0098CF1306E4
:100B8000061E90CB94CF98CF1307604CD8CB8280B1
:100B9000511122C2B707014006C4094723A4E70A3E
:100BA0009387C1C094433E846352D702138541C1E9
:100BB000EFF0CFDD01E585472388F1C0370701401D
:100BC0008327070A93F7F7DF2320F70A1C408507DE
:100BD00023A6F1C009476390E702938741C183A729
:100BE000C70E91EBB72701400D6723AEE74013070F
:100BF000000323A0E742A24012443101828001A0F9
:100C0000397106C016C21AC41EC62AC82ECA32CCF2
:100C100036CE3AD03ED273252034F32510340D2041
:100C200073101534824092422243B2434245D2456A
:100C30006246F2460257925721617300203001A0AC
:100C4000635E05029317150085832D476398E702BD
:100C5000411122C4370401E026C28324443006C671
:100C600091476397F4002EC02537824523229430A4
:100C7000B240224492442E85410182802E8582809A
:100C8000371700401C4785669965D58F1CC793852B
:100C9000A5A5B7270140296623AEB7C21306565A49
:100CA00023AEC7C203A507C21365250023A0A7C2B0
:100CB00003A507C223AEB7C223AEC7C20D99136501
:100CC000050123A0A7C21C43378580FF4CC3130531
:100CD000E50FE98F50C31CC397070000938787F285
:100CE00073905730F367043093860680F3A646303E
:100CF0008280B7070040D853054511C7C85379997A
:100D00001335150006058280B7070040D853D8D3A5
:100D100023AE070013070007D8CF13070009D8CF69
:100D20001307000CD8CF11E693F5F50F2300B5009B
:100D3000C9B785476317F600C205C1812310B50006
:100D4000C5BF0CC1F5B7B7070040D853D8D3094782
:100D5000D8CF13072007D8CF13072009D8CF130700
:100D6000200CD8CFFD572300F50061B7511122C2E6
:100D700006C497F7EFEF9387E7282A8491C7814548
:100D800097000000E7000000970700009387C71F47
:100D900088431C5591C3829722859535B3C7A5001A
:100DA0008D8B3307C50081E78D4763E9C702AA87AA
:100DB0006371E50C83C6050085078505A38FD7FE03
:100DC000E3EAE7FE828083C6050085078505A38FD9
:100DD000D7FEE3EAE7FE02441101828093763500F4
:100DE000AA8791CA83C6050085078505A38FD7FE0C
:100DF00093F63700FDB79376C7FF138606FE63F5BB
:100E0000C706711122C0C04903A3050083A3850052
:100E1000C0CB804D23A0670003A3450080CFC04D09
:100E200023A2670083A2C50003A3050193854502A1
:100E3000C0CF03A4C5FF23A4770023A6570023A88F
:100E400067009387470223AE87FEE3EEC7FAE3F21B
:100E5000D7F890419107910523AEC7FECDBF9041D1
:100E60009107910523AEC7FEE3EBD7FEE3E4E7F479
:100E7000828082803D432A876373C3029377F700A1
:100E8000BDEFADE5937606FF3D8ABA960CC34CC321
:100E90000CC74CC74107E36BD7FE11E28280B30653
:100EA000C3408A069702000096966780A600230733
:100EB000B700A306B7002306B700A305B7002305B4
:100EC000B700A304B7002304B700A303B7002303AC
:100ED000B700A302B7002302B700A301B7002301A4
:100EE000B700A300B7002300B700828093F5F50F89
:100EF00093968500D58D93960501D58D61B7939610
:100F000027009702000096968682E78086FA9680F0
:0C0F1000C1171D8F3E96E374C3F8A5B70F
:100F1C0066F4FFFF28F4FFFF16F3FFFF6EF4FFFFEC
:100F2C0016F3FFFF16F3FFFF26F3FFFF16F3FFFF89
:100F3C00CAF4FFFF16F3FFFFA4F4FFFFF6F4FFFF64
:100F4C0052F8FFFF68F8FFFFD0F8FFFFD8F8FFFF5B
:100F5C00F6F8FFFFFEF8FFFF04F9FFFF9AF8FFFF1A
:100F6C009AF8FFFF76F8FFFF70F8FFFF70F8FFFFAD
:080F7C007AF8FFFF8AF8FFFF7D
:040F84000000002049
:100F88000000000000000000000000000000000059
:100F98000000000000000000000000000000000049
:100FA8000000000000000000000000000000000039
:100FB8000000000000000000000000000000000029
:100FC8000000000000000000000000000000000019
:100FD8000000000000000000000000000000000009
:080FE8000010014000000000B0
:0400000510100000D7
:00000001FF
